:10000000830100308A00042883010A128A11B82F64
:100F700003308316031386003C30831290008601F1
:100F8000D02F8613C42F86170613D02F861306176B
:100F9000D02F0612CC2F06168612D02F06128616D8
:100FA000061CDA2F0310A00D10108F018E010618F9
:100FB000D72F1014861CE42F0314A00D10108F01DE
:100FC0008E018618E12F10140C1CD02F08308606D5
:100FD0000C1010100730A0052008013A0319C12F8A
:100FE000033A0319C32F013A0319C62F073A03190D
:100FF000C92F013A0319CB2F033A0319CE2FD02F53
:00000001FF
